:400000000080002011000000C10C0000C10C000008B5044B1A6803F53F5302331A6000F06FFE00BFFA46004010B5054C237833B9044B13B10448AFF300800123237010BD70
:40004000A082FF1F0000000078280000084B10B51BB108490848AFF300800848036803B910BD074B002BFBD0BDE81040184700BF00000000A482FF1F78280000C880FF1F10
:400080000000000070B50E4600240480FF258570C470022000F078FC012000F075FC204600F072FC2946204600F04CFC3470032000F06AFC052000F067FC042000F064FCF0
:4000C000204670BD38B505460C4600F01BFC011989B2284600F036FC002038BD08B589B200F030FC002008BD08B5002001F012FA08BD00BF684620F007018D4619B572B6FC
:40010000EFF311841E4B1B68DBB20F2B10D9103B23F0030202F1604202F564421168DB0003F01803E0229A400A4022FA03F306E00F2B03D1134B1B681B0E00E0002383F306
:400140001188114A136801331360012B01D102F0D7F862B6FFF7C8FF72B684F3118801F0D3FB094A1368013B13601BB902F0D1F802F095F862B6BDE819408546704700BFFC
:4001800004ED00E020ED00E0DC84FF1F08B510491048FFF777FF104800F016FA01F006FD0E4A136843F005031360022000F0C0FF012000F0BDFF01226421002001F02CF8E1
:4001C00000226421012001F027F801F0D1FC08BD3883FF1F3C83FF1FBC82FF1F10E000E008B5234BDB786BB94FF0FF310020FFF769FF01210846FFF765FF1D4A1388013333
:4002000013801EE0012B0DD14FF0FF310120FFF759FF01210220FFF755FF154A1388013313800EE0022B0CD14FF0FF310220FFF749FF01210020FFF745FF0D4A138801338D
:4002400013800B4B1B88FF2B0ED1094900230B80CA780132A3F1AA3383FB0203A3EBE27303EB4303D31ACB7001F082FC08BD00BF3C83FF1F38B5194C2378194D03EB4303EA
:400280005A00A95C0320FFF729FF237803EB43035A002A4451780420FFF720FF237803EB43035A002A4491780520FFF717FF237803EB43035A0015440022A988012000F04E
:4002C000ABFF22780132074BA3FB02135B0803EBC303D31A237001F04BFC38BD3883FF1F7C280000398EE33830B583B0002301933F2001F035FA01A9022001F091F9019831
:4003000001F060F9019B13F0010F23D03E4B58785B79984207D93C4800F02CFA2021022001F09EF9E4E700F06FFA002402A820F8064D032100F07CF9BDF8023022464FF4ED
:400340007A7101FB03F1022000F066FF01222E4B1A70CDE713F0200F03D02B4800F058F9C6E713F0020F11D002A8002320F8063D022100F05DF9BDF8020000F07BF9224CDC
:40038000A07900F063F902232370B1E713F0040F1BD0002502A820F8065D1B4C94E8060000F074F96288BDF802301344638000F049FA237901332371BDF8020000F008FAAC
:4003C000257063780133637092E713F0080F0AD000F038FA00F07EF90B4B00221A705A7801325A7084E713F0100F81D000F024FA00F028FA00F07CF9034B00221A705A7890
:4004000001325A7074E700BFBC82FF1F08B50221084601F025F901F0ABFB08BD08B50C4B1B7823B90121022001F01AF908BD022B0CD100F00DFA012804D10421022001F0E9
:400440000FF908BD0821022001F00AF908BD00BFBC82FF1F684620F007018D4619B572B6EFF311841E4B1B68DBB20F2B10D9103B23F0030202F1604202F564421168DB0005
:4004800003F01803E0229A400A4022FA03F306E00F2B03D1134B1B681B0E00E0002383F31188114A136801331360012B01D101F027FF62B6FFF7B2FF72B684F3118801F06C
:4004C00023FA094A1368013B13601BB901F021FF01F0E5FE62B6BDE819408546704700BF04ED00E020ED00E0DC84FF1F08B5044B1B78022B03D11021022001F0B1F808BDC4
:40050000BC82FF1F684620F007018D4619B572B6EFF311841E4B1B68DBB20F2B10D9103B23F0030202F1604202F564421168DB0003F01803E0229A400A4022FA03F306E0A8
:400540000F2B03D1134B1B681B0E00E0002383F31188114A136801331360012B01D101F0CFFE62B6FFF7C2FF72B684F3118801F0CBF9094A1368013B13601BB901F0C9FE53
:4005800001F08DFE62B6BDE819408546704700BF04ED00E020ED00E0DC84FF1FFEE700BF08B562B645F6BF52054B1A60054A136843F002031360002001F094FAFBE700BFE8
:4005C00014E000E010E000E038B5044600F0D8FC01F01CFB002002F0A9F802F045F8032323700A2363710125A571064800F00EFD054800F00BFD054800F008FD00202070FC
:40060000657038BDB4280000D42800001829000010B50446054800F0F9FC012363700A236371002060802071207010BD3429000038B505460C4602F03FF890FBF4F304FB2F
:40064000130001302880002038BD00BF10B500EB800000EB8003C3EB0313580184B201F06DFB01F0F5FA204601F00CFB01F066FB002010BD10B5C4B22146002000F0B2F996
:400680002146012000F0AEF9002010BD70B582B0054602AB03E9060001F0DAFA9DF8066042F6E06404FB06F401F006FB201A4FF47A7303FB00F0064B83FB0023C017C0EBFA
:4006C000232000FB06F02880002002B070BD00BFF119760508B5044800F098FC034800F095FC002008BD00BF542900007029000008B5044800F08AFC034800F087FC00206B
:4007000008BD00BF902900007029000010B40139002305E0C25C445CC4544254013301398B42F7DB002010BC704700BF38B50D4690B930230B7000234B7016E00C4AA2FBE4
:400740000302D20802EB820460001B1A9BB230336B5493B2013101E003460021002BEDD16B54C9B22846FFF7D1FF002038BD00BFCDCCCCCC10B582B00446124800F046FC38
:4007800001A92079FFF7D2FF01A800F03FFC0E4800F03CFC01A96088FFF7C8FF01A800F035FC0A4800F032FC6088237901A990FBF3F0FFF7BBFF01A800F028FC002002B079
:4007C00010BD00BFA0290000B4290000C429000010B582B00446094800F018FC084800F015FC01A92046FFF7A1FF01A800F00EFC044800F00BFC002002B010BDD8290000C7
:40080000F8290000102A000010B582B00446084800F0FCFB01A92046FFF788FF01A800F0F5FB044800F0F2FB002002B010BD00BF302A0000382A000008B501F009FA0020BB
:4008400008BD00BF08B500F0FDF8002008BD00BF00B583B0002002A901F8010D00F0DCF89DF90730012B07D1002000F021F888B9012000F01DF878B99DF90730022B0DD1C6
:40088000022000F015F858B9032000F011F8034640B908E0012306E0012304E0002302E0012300E00123184603B05DF804FB00BF08B503281BD8DFE800F002080E1400F0B1
:4008C00079FA012815D0002008BD00F029FC012811D0002008BD00F075FA01280DD0002008BD00F077FA012809D0002008BD002008BD012008BD012008BD012008BD012044
:4009000008BD00BF08B5052819D8DFE800F003070B0F121501F0A0FA80B208BD01F00EFB80B208BD01F07CFB80B208BD01F068FC08BD01F0EDFB08BD00F0C6FA08BD002037
:4009400008BD00BF08B505281BD8DFE800F003070B0F1317C8B201F025FA12E0C8B201F095FA0EE0C8B201F003FB0AE0084601F0E9FB06E0084601F06DFB02E0084600F08A
:4009800045FA002008BD00BF08B5052827D8DFE800F003090F151B2101F050FA002001F001FA1CE001F0BCFA002001F06FFA16E001F028FB002001F0DBFA10E001F012FC05
:4009C000002001F0BFFB0AE001F094FB002001F041FB04E000F06AFA002000F017FA002008BD00BF0F290ED838B50C46054601F0B9F9064B185D064B5C55064B585501F076
:400A0000ABF9002038BD6FF013007047442A0000CC80FF1FC482FF1F024B1B560B700020704700BFCC80FF1F08B5FF22044B1A5401F098F9002001F08FF9002008BD00BF05
:400A4000CC80FF1F08B50020FFF7EEFF0120FFF7EBFF002008BD00BFFEE700BFF0B40022174611E050F82760F3B226F0FF0608E001EB420511F812406D78A5550132013B9C
:400A8000DBB2002BF4D10137212FEBD9F0BC7047064B1B78DBB203F00701054A11701B09013213704422034B1A707047CF0100496E5800407658004008B50A46002101F0B3
:400AC000CAFD08BD38B50122284B1A801823284A13701925023215800232137040F2CF7102321180023213700222224B1A7008224FF040231A70032103F5007319701E4B7F
:400B00001B78DBB21D490B701D4B1A8041F25122023B1A8000240CE01A4B1B7803F0010343EA440404F003044FF4F07001F070FC013D0DB1032CEFD115B90320FFF78CFF69
:400B4000114B4FF480721A8007221A7000220F490A704820023108701A700222033B1A700B4A137843F00303137038BD80400040824000400043004008010049A14600408B
:400B800022420040254200400440004006400040A243004008B501F053FD08BD38B572B600240CE0344D630019194A0011462A44084691882858FFF77FFF0134E4B2072C55
:400BC000F0D900240BE02C49A3001819420088188022416B006BFFF7DDFF0134E4B2002CF1D026494FF09040FFF738FF244A137843F0020313701032137843F002031370C8
:400C0000204C237843F040032370A2F58632513A137843F01003137008221B491B48FFF7B9FF0A221A491B48FFF7B4FF08221A491A48FFF7AFFF082219491A48FFF7AAFF1C
:400C4000082219491948FFF7A5FF194A137843F008031370174D61232B70FFF733FF81232B700122144B1A70FFF712FF0E2221461248FFF78FFF38BD582A00008800004885
:400C800003500140A043004064090048025100406C090048C0510040780900481251004080090048225100408809004832510040224300400048004004000840B0430040EF
:400CC00008B501F091FC03680C2B00D1FEE7FEE708B5094B1A681044084BC31A802B02DC054B186005E001F07FFC0C2303604FF0FF32104608BD00BFD080FF1F208FFF1FAC
:400D000008B5104E104D16E029686B68AC68002204E051F8040B43F8040B0432A242F8D1E868002203E0002143F8041B04328242F9D11035013E002EE6D101F05BFCFFF707
:400D40002FFCFEE701000000102E000008B5104A104B1A60104A136843F40073136000230AE0032B03D80D4A52F8231000E00C490C4A42F8231001332F2BF2D90A4B1A7824
:400D80000A4B1A70074A0A4B1A60FFF707FF08BD0004FA050CED00E014ED00E000000000C10C00000080FF1FBC760040C080FF1F08ED00E0024B1878C0F30010704700BF90
:400DC00001510040024B1878C0F3C000704700BF01510040024B1878C0F34010704700BF01510040024A137843F08003137070477B640040014B1880704700BF1068004029
:400E0000014B1880704700BF90680040014B1880704700BF50680040014B1870704700BF89640040014B1878704700BF69640040014B188880B27047B068004008B501E02D
:400E4000FFF7F6FFFFF7EEFF10F0100FF8D108BD10B5144A137803F0C00343F0090313701D32137843F0010313700F4C237843F001032370FF20FFF7BDFFFF20FFF7C0FFD8
:400E80007F20FFF7C3FF0020FFF7C6FF01F0C8FA237843F01003237001F0C6FAFFF7CEFF10BD00BF7B6400409964004008B5054B1B7823B9FFF7CCFF0122024B1A70FFF750
:400EC00091FF08BDC682FF1F014B188880B270475068004008B51149002001F0A7F90721002001F0B7F900220D4B1A7072220D4B1A702022043B1A700B49012001F096F93F
:400F00000721012001F0A6F90622084B1A70472210331A70022251331A7008BD31100000C782FF1F88650040C91000002665004010B501F075FA04460D4A137843F0200386
:400F40001370043A137843F010031370094A0123136009490B7843F010030B70022307490B60136001F052F9204601F05DFA10BD9865004000E100E09765004080E200E056
:400F800008B5054B5B7823B9FFF7A4FF0122024B5A70FFF7CDFF08BDC782FF1F164BD9799B79DBB2994205D25A1E914214BF0022012204E0CA1AC72A14BF00220122002A50
:400FC000ECD1994207D10D4B1B7813F0040F02D10B4B18707047C72900D90021094B58540131054BD971054B1B7813F0020F02D00222054B1A607047C782FF1F6765004081
:40100000476500404083FF1F00E200E038B5074B5B782BB938BDFFF7C1FF0134A4B201E005460024285D0028F5D138BDC782FF1F1D4B1B78DBB213F01E0F05D01B4803F0F3
:401040001E0201780A43027003F0200303F0FF0233B3174B1978C9B2164B1B78DBB21648C154164B1B7813F0FF0F02D00121144B197010490B780133DBB20B700B78DBB2BD
:40108000C72B02D900210B4B19700A4B1978C9B20C4B1B78DBB2994202D10121074B1970002AC5D1704700BF64650040C782FF1F44650040CA82FF1F0884FF1FCB82FF1FD2
:4010C000CC82FF1FC982FF1F13E0104B1B78DBB2C72B02D900220D4B1A700C4A1378DBB20B49CB5CDBB20B490B7013780133DBB21370064B1B78DBB2074A1278934204D0D3
:40110000064B1B7813F0040FDFD07047CD82FF1F4083FF1F47650040CE82FF1F67650040024B1878C0F38000704700BF3151004038B5EFF3108572B605284ED82D4B53F8B1
:401140002030002B4BD02B4A013B42F820302A4B53F82030032B07D10222274B43F820200022264B43F8202000F03EFC244B1B68002B36D1234B1C6800F014FCB0F1FF3F4A
:4011800031D0214B53F82020204B1B689A422CD9B4F1FF3F03D00221174A42F824101C4A52F820201343194A13600022124B43F8202000F0B3FB174B53F820304BB10024EF
:4011C000144B43F8204040F0004001F0ABF820460CE001F0A7F8002008E0032006E0042004E0002002E0002000E0002085F3108838BD00BF3081FF1FE481FF1F0083FF1F1D
:40120000DC84FF1FC881FF1F842C00002083FF1F542C0000D082FF1FF8B5EFF3108472B6022825D800EB4005AB00184DEB5803EB4306B500164E75598D421BD34AB103EBAF
:4012400043039E00124B1E44B3689A4214D3954214D3A9B103010F4DEB589BB90301EE180127EF507260013900F086F800200AE0032008E0082006E0082004E0082002E0BA
:40128000082000E0072084F31088F8BDDC2B0000182C0000E48CFF1F18B108B5C368984708BD704708B508B1406800E00020052816D80C4B53F8203093B10A4A013B42F81D
:4012C0002030094B53F82030032B07D10222064B43F820200022054B43F8202000F084FB08BD00BF3081FF1FE481FF1F0083FF1F18B1034640689B6801E00023184605289A
:401300001DD80F4A52F82020CAB10E4A52F82010032914D010B50C4C54F820201A4344F820200A4A52F82020134207D0012905D10222044B43F8202000F056FB10BD704739
:40134000242C0000E481FF1F0083FF1FE882FF1F80B108B50378012B06D013B1032B06D008BDFFF79FFF08BDFFF7C2FF08BDFFF793FF08BD704700BF30B400EB400293003D
:40138000214AD258214B03EBC2035C68B4F1FF3F04D11E4B03EBC20250602DE01C4B03EB04139B6899420AD2184D05EBC2025060174A02EB04125B1A93601DE01C46144BAC
:4013C00003EB04139A68891ADB68B3F1FF3F05D00F4A02EB031292689142EFD2B3F1FF3F05D00B4A02EB031295686D1A9560084A02EB0414E0601C46054B03EB00108160B1
:40140000C46030BC704700BFDC2B0000E080FF1FE48CFF1F38B5394A02EBC0035C6852F83030013342F8303000EB40018A0034498A58934203D90022304B43F83020B4F124
:40144000FF3F59D02F4B03EB04139B68002B4ED1214600E019462B4B03EB0113DB68B3F1FF3F05D0274A02EB03129268002AF1D0244A02EB01114FF0FF32CA601F4A02EB6C
:40148000C0004360B3F1FF3F07D01E4A02EB03139A68013A9A6000E02C4604EB44029300194A13441B7A7BB904EB44029300164A13445A68154B53F8223003EB83039A0085
:4014C00013481044FFF744FF0E4B03EB0413DD68596821B101392046FFF74EFF03E024010022084B1A51B5F1FF3FD5D138BD054A02EB0414013BA36038BD00BFE080FF1FBF
:40150000182C0000E48CFF1FDC2B00000C2C0000A02B000038B5EFF3108572B6002838D1FFF778FF204B1B68002B34D11F4B1C6800F038FAB0F1FF3F2FD01D4B53F82020A6
:401540001C4B1B689A422AD9B4F1FF3F03D00221194A42F82410194A52F820201343154A13600022144B43F8202000F0D7F9144B53F820304BB10024114B43F8204040F0E6
:40158000004000F0CFFE20460AE000F0CBFE002006E0032004E0002002E0002000E0002085F3108838BD00BFDC84FF1FC881FF1F842C00002083FF1FE481FF1F542C0000D9
:4015C000D082FF1FEFF3108372B6114A1168114A126882B9B1F1FF3F0FD00F4A52F821206AB110B40D4C54F8212022EA000044F82100002007E0022002E0022000E00120FB
:4016000083F31088704783F3108810BC704700BFC881FF1FDC84FF1F242C00000083FF1F05280FD80B4B53F820306BB10A4B53F82030032B0AD059B1084B53F820300B6043
:40164000002070470320704701207047072070470E207047242C0000E481FF1F0083FF1F38B5EFF3108472B6052853D8324B53F82030002B50D0314B53F82030032B4DD002
:401680002F4D55F820200A4345F820202D4A52F82020114244D0012B44D10222274B43F8202000F0A1F9284B1B68002B3CD1274B1D6800F077F9B0F1FF3F37D0244B53F8EE
:4016C0002020244B1B689A4232D9B5F1FF3F03D002211A4A42F825101F4A52F8202013431C4A13600022154B43F8202000F016F91A4B53F820304BB10025184B43F82050D7
:4017000040F0004000F00EFE284612E000F00AFE00200EE003200CE001200AE0072008E0002006E0002004E0002002E0002000E0002084F3108838BD242C0000E481FF1FAB
:401740000083FF1FE882FF1FDC84FF1FC881FF1F842C00002083FF1F542C0000D082FF1F38B5EFF3108472B6364B1D68364B1B68002B5DD1B5F1FF3F5CD0344B53F82530DD
:40178000002B59D0324B53F82530034256D1314B43F825000122304B43F825202F4B53F825002F490B6823EA00030B602D4B43F825202D4B53F82520224B1A6000F0F2F841
:4017C000B0F1FF3F06D0294B53F82020244B1B689A420DD81B4B1868B0F1FF3F03D000221D4B43F8202040F0004000F09BFD1AE00021194A42F82010184A52F820201343C3
:40180000174A136000F08AF8164B53F8203043B10022144B43F8202040F0004000F082FD01E000F07FFD00200A4B43F8250006E0022004E0022002E0012000E0002084F3ED
:40184000108838BDC881FF1FDC84FF1F242C00000083FF1FE882FF1FE481FF1F542C00002083FF1FD082FF1FCC81FF1F842C000008B500F053F8084B53F8203043B1002232
:40188000054B43F8202040F00040044B186008BD024B186008BD00BFD082FF1FE084FF1F10B500F07FF8124B1B68B0F1FF3F1AD0104A52F82010104A1268914213D9B3F146
:4018C000FF3F03D002240D4941F8234000210B4B43F820100A4B53F820301A43064B1A60FFF7C6FF10BD43F00043064A136010BDC881FF1F842C00002083FF1FE481FF1FDC
:40190000542C0000E084FF1F034B1B6813B10022014B1A60704700BFD084FF1FF0B4184B19880B0A174AD356B3F1FF3F01D1535601E008335BB2144D55F82320134850F8DF
:401940002200134E56F8224045F82340114D2F6846F822702A60B4F1FF3F09D10E4A42F82340012202FA03F321EA0301044B19800A4B19680A4A42F820101860F0BC704718
:401980001C83FF1F942A00008881FF1FB48CFF1F0081FF1F1883FF1F4881FF1FC881FF1FCC81FF1F0C4B1A88130A0C49CB56B3F1FF3F01D18B5601E008335BB2B3F1FF3FEA
:4019C00006D0074A52F82320064B53F8220070474FF0FF30704700BF1C83FF1F942A00008881FF1FB48CFF1F30B4144B53F82020134C2368134951F823502560124C44F8EB
:401A000023004FF0FF3441F82340104951F82210A1420AD10E4951F820400E480188214301800D4941F8223002E0064840F82130064941F8223030BC704700BF1881FF1F92
:401A40001883FF1F0081FF1FB48CFF1F4881FF1F842C00001C83FF1F8881FF1F10B150F8210070474FF0FF30704700BF0122014B1A60FEE7D884FF1F70B50546124B53F810
:401A8000306000241CE0104B03EBC50321465868FFF7E4FF0D4A52F82030013B42F820300B4B53F82030032B07D10222084B43F820200022074B43F82020FFF795FF013417
:401AC000B442E0D370BD00BF942B00003081FF1FE481FF1F0083FF1F18B908B5FFF7CCFF08BD7047194B1A4ADA621A4A9A631A4ADA63EFF3108272B6184B1B6813BB10B5B9
:401B0000044600F053F8164B1C600122134B1A602046FFF7E1FFFFF745FFB0F1FF3F0ED0104B53F82030104A11680B43136000220E4B43F82020FFF7F1FE00F0F3FB62B6BA
:401B4000FFF794FF82F31088072070470080FF1FE5220000A9220000F5000000D884FF1F148DFF1F542C00002083FF1FE481FF1F08B5EFF3108272B6094B1968094B1B688A
:401B800033B94FF0FF30084B43F82100002000E0022010B9084600F01EFC82F3108808BDC881FF1FDC84FF1FE880FF1F70B5124B1E68EFF3108572B600F064FB0F4A1368D2
:401BC00043F07F4313600E4BB3640121022000F041FB0C4C236843F0040323600A4BC6F884300121112000F035FB236843F40033236085F3108870BD08ED00E020ED00E04C
:401C00005504000000E100E005050000054A137843F0040313701032137843F004031370704700BFA2430040084A137843F0010313701032137843F00103137002F64D322F
:401C4000137843F001031370704700BFA3430040084A137803F0FE031370A2F65D32137803F0FE0313701032137803F0FE031370704700BF004F0040014B1870704700BF73
:401C8000034F004010B50446094B1B7813F0010F02D0002000F0C8FA054B1A7842F001021A70044A14801A7802F0FE021A7010BDA3430040064F0040024B1B88024B1888EF
:401CC00080B27047064F0040084F0040014B1880704700BF044F004008B5164A137803F0010313700232137803F0FC031370013A137843F0010313700F4B1A7802F0CF025D
:401D00001A701A7842F030021A701A7802F0F0021A701A7842F00F021A7042F6E060FFF7D5FF42F6E060FFF7ADFF0820FFF7A4FF08BD00BF004F00400B4F004008B5054B63
:401D40001B7823B9FFF7C8FF0122024B1A70FFF76BFF08BD2883FF1F014B1870704700BF79650040044A137803F0DF03400100F0200018431070704730510040024A1378BE
:401D800043F080031370704779640040014B1870704700BF09650040014B1870704700BF49650040014B1870704700BF29650040014B1870704700BF8A640040014B18787A
:401DC000704700BF6A640040014B1878704700BF5965004008B501E0FFF7F6FFFFF7EEFF10F0100FF8D108BD08B5124A137803F0C00343F00903137002F59072137843F023
:401E000001031370FF20FFF7C1FFFF20FFF7C4FF7F20FFF7C7FF0420FFF7CAFF00F000FB054A137843F01003137000F0FDFAFFF7D1FF08BD796400409A64004008B5054BC8
:401E40001B7823B9FFF7D0FF0122024B1A70FFF795FF08BD2983FF1F014B1878704700BF29650040024A137843F080031370704776650040014B1870704700BF0764004024
:401E8000014B1870704700BF47640040014B1870704700BF27640040014B1870704700BF87640040014B1878704700BF67640040014B1878704700BF5764004008B501E01B
:401EC000FFF7F6FFFFF7EEFF10F0100FF8D108BD10B5114A137803F0C00343F0090313700E4C237843F001032370FF20FFF7C2FFFF20FFF7C5FF7F20FFF7C8FF0020FFF764
:401F0000CBFF00F08DFA237843F01003237000F08BFAFFF7D3FF10BD766500409764004008B5054B1B7823B9FFF7D2FF0122024B1A70FFF797FF08BD2A83FF1F014B187857
:401F4000704700BF27640040024A137843F080031370704776640040014B1870704700BF06640040014B1870704700BF46640040014B1870704700BF26640040014B18702F
:401F8000704700BF86640040014B1878704700BF66640040014B1878704700BF5664004008B501E0FFF7F6FFFFF7EEFF10F0100FF8D108BD10B5114A137803F0C00343F02C
:401FC000090313700E4C237843F001032370FF20FFF7C2FFFF20FFF7C5FF7F20FFF7C8FF0020FFF7CBFF00F01BFA237843F01003237000F019FAFFF7D3FF10BD766400407D
:402000009664004008B5054B1B7823B9FFF7D2FF0122024B1A70FFF797FF08BD2B83FF1F014B1878704700BF26640040024A137843F08003137070477D640040014B188024
:40204000704700BF18680040014B1880704700BF98680040014B1880704700BF58680040014B1870704700BF8D640040014B1878704700BF6D640040014B188880B2704783
:40208000B868004008B501E0FFF7F6FFFFF7EEFF10F0100FF8D108BD10B5144A137803F0C00343F0090313701F32137843F0010313700F4C237843F001032370FF20FFF716
:4020C000BDFFFF20FFF7C0FF7F20FFF7C3FF0020FFF7C6FF00F0A4F9237843F01003237000F0A2F9FFF7CEFF10BD00BF7D6400409D64004008B5054B1B7823B9FFF7CCFFA4
:402100000122024B1A70FFF791FF08BD2C83FF1F014B188880B2704758680040024A137843F08003137070477A640040014B1880704700BF14680040014B1880704700BF63
:4021400094680040014B1880704700BF54680040014B1870704700BF8B640040014B1878704700BF6B640040014B188880B27047B468004008B501E0FFF7F6FFFFF7EEFF56
:4021800010F0100FF8D108BD10B5144A137803F0C00343F0090313702032137843F0010313700F4C237843F001032370FF20FFF7BDFFFF20FFF7C0FF7F20FFF7C3FF0020D9
:4021C000FFF7C6FF00F02CF9237843F01003237000F02AF9FFF7CEFF10BD00BF7A6400409B64004008B5054B1B7823B9FFF7CCFF0122024B1A70FFF791FF08BD2D83FF1F8C
:40220000014B188880B2704754680040054A137843F0020313701032137843F002031370704700BFA243004001BE704770B504460E46074B1D681F2802D90020FFF7F4FFDA
:4022400004F01F04103455F8240045F8246070BD08ED00E038B504460D46072902D90020FFF7E2FF1F2C02D90020FFF7DDFF04F01F0000F1604000F564406D01EDB205706C
:4022800038BD00BF18484FF47F0102680A43026016486FF07F4102680A400260704714484FF080510160704772B611484FF000610160FFF7F5FA0F48006800F0D5F858B174
:4022C0000C4800684FF080730B4A0C490FB40FB46FF00600004700BF6FF0060062B6004762B600DF08B0704720ED00E01CED00E004ED00E0E084FF1F25230000E1220000B7
:40230000EFF30880054908600548006880F3088870470248006880F3088870473882FF1F2C82FF1F411C8900154A11440968154A136899421AD0F0B444464D4656465F4652
:40234000F0B400B5104C9B002344EFF308851D60116089002144096881F3088802BC8E46F0BCA046A946B246BB46F0BC002806DB00B500F06DF802BC8E46FFF7D3BF70474A
:40238000CC2C00002483FF1F3082FF1FF0B444464D4656465F46F0B400B5EFF3038308B48000174901440968164A0244EFF30883136088471448804704BC4FF080700243CF
:4023C00082F3038801BC8646F0BCA046A946B246BB46F0BC704780000A4901440A6882F3088804BC4FF08070024382F3038808BC9E46F0BCA046A946B246BB46F0BC70472F
:402400009C2C0000CC8CFF1F31240000000000000230800803D000BF01380046FCD17047EFF3108072B6704780F31088704700BF08B572B6014B1868FFF7CDFFC881FF1F0E
:4024400008B5024B1868FFF7A1FF08BDC881FF1F08B562B6FFF7F4FF72B600F041F8014B186808BDE084FF1F00280BDA20F000400130054B53F82000044B1B68181A18BFCA
:402480000120704701207047CC2C00002483FF1F054B53F82020054B53F820309A4201D101207047002070473081FF1F3C2C000008B5FFF733FA084B53F8203043B1002271
:4024C000054B43F8202040F00040044B186008BD024B186008BD00BFD082FF1FE084FF1F38B5364B1C680022354B1A60354A52F82430013342F82430334B53F8245020464A
:40250000FFF7C6FF012801D0A54204D103222F4B43F8242003E002222C4B43F824202C4B53F824102B4A136823EA010313602A4B53F82440214B1C60B5F1FF3F0FD0234B68
:4025400053F82530032B07D10222204B43F825200022224B43F825202846FFF745FAFFF721FAB0F1FF3F0BD1B4F1FF3F03D00022164B43F8242044F00044194B1C6038BD23
:40258000184B53F82020134B1B689A4208D800220E4B43F8242044F00044114B1C6038BD00210A4A42F82010094A52F820201343084A1360FFF77CFF38BD00BFC881FF1FEE
:4025C000D084FF1F3081FF1FE880FF1FE481FF1F542C00002083FF1FCC81FF1F0083FF1FE084FF1F842C0000014B1868704700BF9C82FF1F0E4B70B51E460E4C0025E41A35
:40260000A410A54204D056F8253098470135F8E700F0ECFB084B094C1E46E41AA4100025A54204D056F8253098470135F8E770BDF82D0000F82D0000F82D0000002E0000BE
:4026400010B5431E0A44914204D011F8014B03F8014FF8E710BD03460244934202D003F8011BFAE77047000038B5124B05461C68A36BD3B9182000F07FF843F20E33A06343
:4026800003804AF6CD33438041F2342383804EF26D63C3804DF6EC630381052343810B23838101220023C0E90423A36B00221D615A6138BD9C82FF1F194B10B51C68A36B15
:4026C000D3B9182000F058F843F20E33A06303804AF6CD33438041F2342383804EF26D63C3804DF6EC630381052343810B23838101220023C0E90423A16B0A4C0B69486926
:402700005C43094A02FB0040A3FB02230132034443F10003C1E9042323F0004010BD00BF9C82FF1F2DF451582D7F954C13B5084B044600221868694600F00CF80028BCBF66
:402740004FF0FF330093009804B1206002B010BD9C82FF1F38B5074C0023054608461146236000F081F8431C02D1236803B12B6038BD00BF188FFF1F024B0146186800F015
:4027800003B800BF9C82FF1F70B5CD1C25F0030508350C2D38BF0C25002D064601DBA94202D90C23336046E000F05CF8234B1C681A462146A1B10B685B1B0ED40B2B03D96B
:4027C0000B60CC18CD501EE08C420BBF63684B681360636018BF0C4615E00C464968E9E7174C23681BB9304600F02CF820602946304600F027F8431C18D0C41C24F0030430
:40280000A0420DD12560304600F02DF804F10B00231D20F00700C31A0ED05A42E25070BD211A304600F00EF80130EBD10C233360304600F018F8002070BD00BF3483FF1F0E
:402840003083FF1F38B5064C0023054608462360FEF73EFA431C02D1236803B12B6038BD188FFF1F70477047024B58221A604FF0FF307047188FFF1F000000001400000079
:40288000F40100140000F40100001400F4010000000064000A0A0A0064000000000064000A0A0A0064000000000064000A0A0A00640000000A57656C636F6D6520746F2066
:4028C000746865205265616374696F6E2047616D650A0000507265737320616E79206F662074686520726967687420627574746F6E7320666F722027312720616E64206C81
:4029000065667420627574746F6E7320666F7220273227200A000000507265737320616E79206B657920746F20626567696E0A0A000000000A507265737320616E79206BD4
:40294000657920746F20706C617920616761696E0A0A0000496E636F727265637420427574746F6E20507265737365640A000000507265737320616E7920627574746F6EF6
:4029800020746F20636F6E74696E75650A0A000054696D652072616E206F75740A0000000A436F72726563742070726573736573203A20000A546F74616C2074696D652091
:4029C0003A2000000A417665726167652074696D65203A200000000047726561742120436F727265637420427574746F6E20507265737365640A00005265616374696F6E98
:402A00002054696D6520696E206D733A200000000A507265737320616E7920627574746F6E20746F20636F6E74696E75650A0A000A526F756E642000207374617274656476
:402A4000210A0000FC60DAF266B6BEE0FEF6EE3E9C7A9E8E01000000004F00400C00405100403000F0510040100000000140001080140140800700400140000A004C0140F4
:402A8000000200500140200000140140E408004880000000FF00010102020202030303030303030304040404040404040404040404040404050505050505050505050505BD
:402AC000050505050505050505050505050505050505050506060606060606060606060606060606060606060606060606060606060606060606060606060606060606066A
:402B000006060606060606060606060606060606060606060707070707070707070707070707070707070707070707070707070707070707070707070707070707070707E9
:402B40000707070707070707070707070707070707070707070707070707070707070707070707070707070707070707070707070707070707070707070707070707070795
:402B80000707070707070707070707070707070707070707010000009C2B00000000000000000000030000000000000000000000FFFFFFFF000000000400000000000000BE
:402BC00000000000FFFFFFFF00000000050000000000000000000000FFFFFFFF000000000000000000000000000000000100000000000000000000000200000000000000D5
:402C00000000000001000000020000000000000001000000020000001027000001000000010000000000000000000000010000000000000000000000000000000100000053
:402C40000100000001000000010000000100000001000000800000000200000020000000040000000800000010000000010000000200000004000000080000001000000072
:402C8000200000000100000002000000200000000400000008000000100000008D0100009D050000E9020000E1010000750200000D04000041240000412400004124000001
:402CC00041240000412400004124000000000000000000000000000001000000000000000000000000000000616C726D5F66616465720000616C726D5F676C6F77657200FC
:402D0000616C726D5F736576656E000065765F73746172745F726F756E64000065765F73746172745F63616C63756C6174696F6E0000000065765F73746F705F63616C6330
:402D40005F636F72726563740000000065765F73746F705F63616C635F696E636F7272656374000065765F73746F705F63616C635F74696D656F75740000000065765F72E4
:402D80006573746172745F67616D650074736B5F6175746F0000000074736B5F6261636B67726F756E64000074736B5F7265616374696F6E47616D650000000074736B5F1B
:402DC000666164657200000074736B5F676C6F776572000074736B5F736576656E5365676D656E740000000043000000F8B500BFF8BC08BC9E4670474D0000004D0D000082
:402E0000F8B500BFF8BC08BC9E46704729000000202E0000C880FF1FD8010000800C000000000000FFFF0000208FFF1FE82C0000F42C0000002D000000000000FFFFFFFFA9
:402E4000FFFFFFFFFFFFFFFFFFFFFFFFFFFFFFFFFFFFFFFFFFFFFFFF0100000002000000030000000400000005000000FFFFFFFF0000000001000000050000000200000057
:402E80000300000004000000010000000100000001000000010000000100000001000000FFFFFFFFFFFFFFFFFFFFFFFFFFFFFFFFFFFFFFFFFFFFFFFFFFFFFFFFFFFFFFFF25
:402EC000FFFFFFFFFFFFFFFFFFFFFFFFFFFFFFFFFFFFFFFFFFFFFFFFFFFFFFFFFFFFFFFFFFFFFFFFFFFFFFFFFFFFFFFFFFFFFFFFFFFFFFFFFFFFFFFFFFFFFFFFFFFFFFFF12
:402F0000FFFFFFFFFFFFFFFFFFFFFFFFFFFFFFFFFFFFFFFFFFFFFFFFFFFFFFFFFFFFFFFFFFFFFFFFFFFFFFFFFFFFFFFFFFFFFFFFFFFFFFFFFFFFFFFFFFFFFFFF03000000CA
:402F400003000000030000000300000003000000030000000C2D00001C2D0000342D00004C2D0000642D00007C2D00008C2D0000982D0000A82D0000BC2D0000C82D00007B
:402F8000D42D0000188FFF1F000000008C8CFF1F000000000000000000000000000000000000000000000000000000000000000000000000E82D0000000000000000000000
:402FC000000000000000000000000000000000000000000000000000000000000000000000000000000000000000000000000000000000003C82FF1F0000000000000000F5
:403000000000000000000000000000000000000000000000000000000000000000000000000000000000000000000000000000000000000000000000000000000000000090
:403040000000000000000000000000000000000000000000000000000000000000000000000000000000000000000000000000000000000000000000000000000000000050
:403080000000000000000000000000000000000000000000000000000000000000000000000000000000000000000000000000000000000000000000000000000000000010
:4030C00000000000000000000000000000000000000000000000000000000000000000000000000000000000000000000000000000000000000000000000000000000000D0
:020000040003F7
:0200000480007A
:40000000024F0040085200400664004003650040030201400303014008050140520601403507014059080140350901404A0A0140350B0140470C01402A0D014009140140B1
:400040004B15014060160140451701404818014049190140181B0140044001400F4101400D4201400B430140084501400546014006480140034901400E4C01400F4D014030
:40008000075001400151014001200A870080018008C309661021112161806440860D870D890D8A0D8B0D8D0D8438870F88723E4058045F011F408F02E64484408520892008
:4000C0008B409380A702E028E6800401070608010B0813011A021B0C1C012001250230013104330134023508370238023E013F104020410645D14620480B49FF4AFF4BFFC2
:400100004DA04F04501852805405580459045A045B045F01604062C06440654066C068C06AC06CC06EC087019B069F05A502A601B102B201B301B504BF04C010C106C5D15B
:40014000C702C813C9FFCAFFCBFFCDA0CF04D018D405D804D904DA04DB04DF01E040E2C0E440E540E6C0E8C0EAC0ECC0EEC0040405200E010F081020144019081F12212161
:4001800022042641272829082F103020318032803502372038083F28408041814720482849014F29500C5710588059015A085E805F09750282018E01920198409920A520E1
:4001C000A702AE01C060C2C0C414CA42CCACCE62D028D224D6DBE21000030101020C0306040C0506080409060B010C080D0712031301140C1506160317011C011D04200F60
:400200002402280F29022C033307360F3A803B084030410649FF4AFF4BFF4DA04F045018580459045A045C115F01604062C06440654066C068C06AC06CC06EC087018A047A
:40024000920296019804AA01B002B401B501B604BE10C030C106C5D1C702C813C9FFCAFFCBFFCDAFCE0FCF04D018D280D405D804D904DA04DB04DF01E040E2C0E440E5407B
:40028000E6C0E8C0EAC0ECC0EEC00020040505A00610092A0C010F111208154016C0171819401A441B011C011E022120260427102D203401358036063B043C053E803F1082
:4002C00041084508481049024A084B044E08520859425A047102964097089D01A108A418A701C0F2C2BEC4F2CA20CCD0CEF2D042D224D60B07011202170218012A012F0227
:4003000030013302340235013F044020410649FF4AFF4BFF4DA04F04501852805405580459045A045B045F01604062C06440654066C068C06AC06CC06EC087029A029B01DF
:40034000A702AD01AE01B002B201B502B701BF10C060C102C5D1C702C813C9FFCAFFCBFFCDAFCE0FCF04D018D280D405D804D904DA04DB04DF01E040E2C0E440E540E6C016
:40038000E8C0EAC0ECC0EEC009220F0812041740180419201A801B201D081F0221202204264027082B012F22300836203A043B083C084004460848044D204E204F0954043D
:4003C000560859015A885E805F0971027740964097089D20A410A508A704AF10B201C24AC482CA58CC22CE42D024D224D6DBE008EC020A011A0134014030410649FF4AFFBD
:400400004BFF4DA04F04501858045A045F01604062C06440654066C068C06AC06CC06EC087028A049201930496049A019F03A208A501A602AA02B001B101B208B302B4028F
:40044000B504B604BE10C020C106C5D0C601C702C816C9FFCAFFCBFFCDAFCE0FCF04D018D280D405D804D904DA04DB04DF01E040E2C0E440E540E6C0E8C0EAC0ECC0EEC044
:400480000020052009080A400B080F08108012081308184019081A061F102004239829083080310238044004470849014A084E085080520859015A045B80710280408710AA
:4004C000C042C24EC40ECA02CC09CE02D044D224D60BE00885038D03A301AD02B103B902BF01D904DF010106020A080209080B0A10401140122419901A201B01201421020D
:4005000022802320278028062A022B202C402F8130803112320838013A2C3B803C803D443E04409449204A22532059205A226008620163028212872088888A808C018D1A9E
:400540009206938A98869A289D809E019F80A040A20AA380A508AA20AD20AE08B201B602C00FC20FC40FCA9FCC0FCE5FD007D20CD601D80DE002E404EA04EE0202030301F1
:400580000401060E0A080C1C0E0320012216261C300F341A37013A224001470449FF4A074BFF4C404D204EF04F0550085280580459045A045B045C015D015F01604061A8BD
:4005C0006240632081438203830C840C86118708881089208B108C1C8D0A8E028F449010920C940995109610972099039B049D30A020A180A305A414A543A704A930B01F69
:40060000B10FB220B330B5C0B920BB02BE04C041C102C5ECC6B0C80BC9FFCAFFCBFFCEF0CF44D00CD401D604D804D904DA04DB04DC11DD11DF01E6C0EA40EB0200400102D2
:40064000020403300440064407100A600C040F20121013011502170819061C401E041F212094210122182308268029202BA03010310832203340385439023C0241014244AA
:400680004380478049014A204B095210564457805810598563407401800282088340850287408B408C808F109E01A680A804C0FFC20CC43CCA07CC0ECE8FD01DD60FD80133
:4006C000E004E408E60100020C01110113061402150719061C021D04210725062701280229022F013107320236013E4456025711580459045B045C105D105F0181118380AE
:40070000871089608D03930F9570970B99709B079D1F9F60A17FA502A920AD40B37CB580B703BB08C040C106C5D1C702C813C9FFCAFFCBFFCDA0CF04D018D904DA04DB047E
:40074000DC10DF01E040E2C0E440E540E6C0E8C0EAC0ECC0EEC00502064607080C400E020F1017101E201F40200422082312248029A22A042C102D222F023050320A3312D2
:40078000358036093720380439403A103B014240480849014B0850085E2068206A806B446C066D04711072A175A07610772080048308860287408B108E018F0492409540E2
:4007C00097199B109DA19E509F08A201A408A602C090C2A0C440CAFFCCFFCE0FD001D204D620E008E210E6808102860288028D408F01954097019D02A002A602A820A91007
:40080000AB50AD04B281B302B440B660E040E690E801EA20EC05EE10300231203640CC7005400B400F105902652081028C02A402A520A640C080C230D640D880E6201301C2
:40084000624085408A408B40935099409D20A520A640C410D640E410730181208D2093019D20A520A640AF10DC20E220E810531057025A0164108601D404D606D8018702DF
:40088000A702AC10B310E80486409E01A640AA01E640E82002019E01C0405004550257085B205F0462406308650187108D02D407D607D803E408102073108C209310A804B0
:4008C000AB24B240B304B501B708C408DC01E608E808EC0700030A010C030E0110031A031C03003F040018040208000010000401000001011C000010080004040000020256
:400900000008020000010200000001101C01000002080000010100081C060210000208000000415043060500020CE00009FFFFFF62A0F0410C0000001800040004040404EC
:4009400011110001000000000000400200103010001010120000000000000000000000000000000038C0C000C000000080004080800080000000000000FFFF00FF000000DB
:400980000039390039000000042020000000000000000000000000000000000000000000000000000000000000000000000000000000000000000000000000000000000048
:4009C00000000000000000000000000000000000000000000000000000000000000000000000000000000000000000000000000000000000000000000000000000000000F7
:400A000000000000000000000000000000000000000000000000000000000000000000000000000000000000000000000000000000000000000000000000000000000000B6
:400A40000000000000000000000000000000000000000000000000000000000000000000000000000000000000000000000000000000000000000000000000000000000076
:400A80000000000000000000000000000000000000000000000000000000000000000000000000000000000000000000000000000000000000000000000000000000000036
:0200000490006A
:0400000000004007B5
:0200000490105A
:04000000BC90ACAF55
:0200000490303A
:0200000045BAFF
:0200000490402A
:4000000000000000000000000000000000000000000000000000000000000000000000000000000000000000000000000000000000000000000000000000000000000000C0
:400040000000000000000000000000000000000000000000000000000000000000000000000000000000000000000000000000000000000000000000000000000000000080
:400080000000000000000000000000000000000000000000000000000000000000000000000000000000000000000000000000000000000000000000000000000000000040
:4000C0000000000000000000000000000000000000000000000000000000000000000000000000000000000000000000000000000000000000000000000000000000000000
:0200000490501A
:0C00000000012E16106900012E2A562364
:00000001FF